{
  "contractName": "charity",
  "abi": [
    {
      "inputs": [],
      "payable": false,
      "stateMutability": "nonpayable",
      "type": "constructor"
    },
    {
      "constant": true,
      "inputs": [
        {
          "internalType": "uint256",
          "name": "",
          "type": "uint256"
        }
      ],
      "name": "Blockchain",
      "outputs": [
        {
          "internalType": "uint256",
          "name": "nonce",
          "type": "uint256"
        },
        {
          "internalType": "bytes",
          "name": "data",
          "type": "bytes"
        },
        {
          "internalType": "bytes32",
          "name": "transaction_hash_add",
          "type": "bytes32"
        },
        {
          "internalType": "uint256",
          "name": "blockNumber",
          "type": "uint256"
        },
        {
          "internalType": "bytes32",
          "name": "hash",
          "type": "bytes32"
        },
        {
          "internalType": "bytes32",
          "name": "previous_hash",
          "type": "bytes32"
        }
      ],
      "payable": false,
      "stateMutability": "view",
      "type": "function"
    },
    {
      "constant": true,
      "inputs": [],
      "name": "blockchain_count",
      "outputs": [
        {
          "internalType": "uint256",
          "name": "",
          "type": "uint256"
        }
      ],
      "payable": false,
      "stateMutability": "view",
      "type": "function"
    },
    {
      "constant": true,
      "inputs": [],
      "name": "charity_count",
      "outputs": [
        {
          "internalType": "uint256",
          "name": "",
          "type": "uint256"
        }
      ],
      "payable": false,
      "stateMutability": "view",
      "type": "function"
    },
    {
      "constant": true,
      "inputs": [
        {
          "internalType": "uint256",
          "name": "",
          "type": "uint256"
        }
      ],
      "name": "charitys",
      "outputs": [
        {
          "internalType": "string",
          "name": "name",
          "type": "string"
        },
        {
          "internalType": "string",
          "name": "description",
          "type": "string"
        },
        {
          "internalType": "string",
          "name": "bankAccount",
          "type": "string"
        },
        {
          "internalType": "string",
          "name": "bankName",
          "type": "string"
        },
        {
          "internalType": "uint256",
          "name": "id",
          "type": "uint256"
        },
        {
          "internalType": "bytes32",
          "name": "hash",
          "type": "bytes32"
        },
        {
          "internalType": "string",
          "name": "address_of_charity",
          "type": "string"
        },
        {
          "internalType": "string",
          "name": "ether_coins",
          "type": "string"
        }
      ],
      "payable": false,
      "stateMutability": "view",
      "type": "function"
    },
    {
      "constant": true,
      "inputs": [
        {
          "internalType": "uint256",
          "name": "",
          "type": "uint256"
        }
      ],
      "name": "org",
      "outputs": [
        {
          "internalType": "string",
          "name": "name",
          "type": "string"
        },
        {
          "internalType": "string",
          "name": "bankAccount",
          "type": "string"
        },
        {
          "internalType": "string",
          "name": "bankName",
          "type": "string"
        },
        {
          "internalType": "uint256",
          "name": "id",
          "type": "uint256"
        },
        {
          "internalType": "bytes32",
          "name": "hash",
          "type": "bytes32"
        },
        {
          "internalType": "string",
          "name": "address_of_organisation",
          "type": "string"
        },
        {
          "internalType": "string",
          "name": "ether_coins",
          "type": "string"
        }
      ],
      "payable": false,
      "stateMutability": "view",
      "type": "function"
    },
    {
      "constant": true,
      "inputs": [],
      "name": "org_count",
      "outputs": [
        {
          "internalType": "uint256",
          "name": "",
          "type": "uint256"
        }
      ],
      "payable": false,
      "stateMutability": "view",
      "type": "function"
    },
    {
      "constant": true,
      "inputs": [],
      "name": "transaction_count",
      "outputs": [
        {
          "internalType": "uint256",
          "name": "",
          "type": "uint256"
        }
      ],
      "payable": false,
      "stateMutability": "view",
      "type": "function"
    },
    {
      "constant": true,
      "inputs": [
        {
          "internalType": "uint256",
          "name": "",
          "type": "uint256"
        }
      ],
      "name": "transaction_dict",
      "outputs": [
        {
          "internalType": "string",
          "name": "address_of_charity",
          "type": "string"
        },
        {
          "internalType": "string",
          "name": "address_of_organisation",
          "type": "string"
        },
        {
          "internalType": "string",
          "name": "amount_sent",
          "type": "string"
        },
        {
          "internalType": "uint256",
          "name": "id",
          "type": "uint256"
        },
        {
          "internalType": "bytes32",
          "name": "transaction_hash",
          "type": "bytes32"
        }
      ],
      "payable": false,
      "stateMutability": "view",
      "type": "function"
    },
    {
      "constant": false,
      "inputs": [
        {
          "internalType": "string",
          "name": "_name",
          "type": "string"
        },
        {
          "internalType": "string",
          "name": "_description",
          "type": "string"
        },
        {
          "internalType": "string",
          "name": "_bankacc",
          "type": "string"
        },
        {
          "internalType": "string",
          "name": "_bankname",
          "type": "string"
        },
        {
          "internalType": "string",
          "name": "_address",
          "type": "string"
        },
        {
          "internalType": "string",
          "name": "_ether_coins",
          "type": "string"
        }
      ],
      "name": "createCharity",
      "outputs": [
        {
          "internalType": "uint256",
          "name": "",
          "type": "uint256"
        }
      ],
      "payable": false,
      "stateMutability": "nonpayable",
      "type": "function"
    },
    {
      "constant": false,
      "inputs": [
        {
          "internalType": "string",
          "name": "_name",
          "type": "string"
        },
        {
          "internalType": "string",
          "name": "_bankacc",
          "type": "string"
        },
        {
          "internalType": "string",
          "name": "_bankname",
          "type": "string"
        },
        {
          "internalType": "string",
          "name": "_address",
          "type": "string"
        },
        {
          "internalType": "string",
          "name": "_ether_coins",
          "type": "string"
        }
      ],
      "name": "createOrganisation",
      "outputs": [
        {
          "internalType": "uint256",
          "name": "",
          "type": "uint256"
        }
      ],
      "payable": false,
      "stateMutability": "nonpayable",
      "type": "function"
    },
    {
      "constant": false,
      "inputs": [
        {
          "internalType": "string",
          "name": "add_of_charity",
          "type": "string"
        },
        {
          "internalType": "string",
          "name": "add_of_org",
          "type": "string"
        },
        {
          "internalType": "string",
          "name": "amount",
          "type": "string"
        }
      ],
      "name": "createTransaction",
      "outputs": [],
      "payable": false,
      "stateMutability": "nonpayable",
      "type": "function"
    },
    {
      "constant": false,
      "inputs": [],
      "name": "blockchain_function",
      "outputs": [],
      "payable": false,
      "stateMutability": "nonpayable",
      "type": "function"
    }
  ],
  "bytecode": "0x6080604052600080556000600155600060045560006006553480156200002457600080fd5b506200015d6040518060400160405280600d81526020017f616e616e645f63686172697479000000000000000000000000000000000000008152506040518060400160405280601a81526020017f77656c636f6d6520746f20616e616e64277320636861726974790000000000008152506040518060400160405280600781526020017f62616e6b616363000000000000000000000000000000000000000000000000008152506040518060400160405280600881526020017f62616e6b6e616d650000000000000000000000000000000000000000000000008152506040518060600160405280602a815260200162006b33602a91396040518060400160405280600481526020017f3030303000000000000000000000000000000000000000000000000000000000815250620002f160201b60201c565b50620002606040518060400160405280601281526020017f616e616e645f6f7267616e69736174696f6e00000000000000000000000000008152506040518060400160405280600c81526020017f62616e6b206163636f756e7400000000000000000000000000000000000000008152506040518060400160405280600981526020017f62616e6b206e616d6500000000000000000000000000000000000000000000008152506040518060600160405280602a815260200162006b33602a91396040518060400160405280600481526020017f30303030000000000000000000000000000000000000000000000000000000008152506200074660201b60201c565b50620002db6040518060600160405280602a815260200162006adf602a91396040518060600160405280602a815260200162006b09602a91396040518060400160405280600181526020017f310000000000000000000000000000000000000000000000000000000000000081525062000af060201b60201c565b620002eb62000da760201b60201c565b6200297b565b6000806000815480929190600101919050555060608790506060879050606087905060608790506060879050606081518351855187518951010101016040519080825280601f01601f191660200182016040528015620003605781602001600182028038833980820191505090505b5090506060819050600080905060008090505b8851811015620003e7578881815181106200038a57fe5b602001015160f81c60f81b838381518110620003a257fe5b60200101907effffffffffffffffffffffffffffffffffffffffffffffffffffffffffffff1916908160001a9053508180600101925050808060010191505062000373565b5060008090505b875181101562000462578781815181106200040557fe5b602001015160f81c60f81b8383815181106200041d57fe5b60200101907effffffffffffffffffffffffffffffffffffffffffffffffffffffffffffff1916908160001a90535081806001019250508080600101915050620003ee565b5060008090505b8651811015620004dd578681815181106200048057fe5b602001015160f81c60f81b8383815181106200049857fe5b60200101907effffffffffffffffffffffffffffffffffffffffffffffffffffffffffffff1916908160001a9053508180600101925050808060010191505062000469565b5060008090505b85518110156200055857858181518110620004fb57fe5b602001015160f81c60f81b8383815181106200051357fe5b60200101907effffffffffffffffffffffffffffffffffffffffffffffffffffffffffffff1916908160001a90535081806001019250508080600101915050620004e4565b5060008090505b8451811015620005d3578481815181106200057657fe5b602001015160f81c60f81b8383815181106200058e57fe5b60200101907effffffffffffffffffffffffffffffffffffffffffffffffffffffffffffff1916908160001a905350818060010192505080806001019150506200055f565b506000828051906020012090508f600260008054815260200190815260200160002060000190805190602001906200060d92919062002845565b508e600260008054815260200190815260200160002060010190805190602001906200063b92919062002845565b508d600260008054815260200190815260200160002060020190805190602001906200066992919062002845565b508c600260008054815260200190815260200160002060030190805190602001906200069792919062002845565b50600054600260008054815260200190815260200160002060040181905550806002600080548152602001908152602001600020600501819055508b60026000805481526020019081526020016000206006019080519060200190620006ff92919062002845565b508a600260008054815260200190815260200160002060070190805190602001906200072d92919062002845565b5060005499505050505050505050509695505050505050565b60006001600081548092919060010191905055506060869050606086905060608690506060869050606081518351855187510101016040519080825280601f01601f191660200182016040528015620007ae5781602001600182028038833980820191505090505b5090506060819050600080905060008090505b87518110156200083557878181518110620007d857fe5b602001015160f81c60f81b838381518110620007f057fe5b60200101907effffffffffffffffffffffffffffffffffffffffffffffffffffffffffffff1916908160001a90535081806001019250508080600101915050620007c1565b5060008090505b8651811015620008b0578681815181106200085357fe5b602001015160f81c60f81b8383815181106200086b57fe5b60200101907effffffffffffffffffffffffffffffffffffffffffffffffffffffffffffff1916908160001a905350818060010192505080806001019150506200083c565b5060008090505b85518110156200092b57858181518110620008ce57fe5b602001015160f81c60f81b838381518110620008e657fe5b60200101907effffffffffffffffffffffffffffffffffffffffffffffffffffffffffffff1916908160001a90535081806001019250508080600101915050620008b7565b5060008090505b8451811015620009a6578481815181106200094957fe5b602001015160f81c60f81b8383815181106200096157fe5b60200101907effffffffffffffffffffffffffffffffffffffffffffffffffffffffffffff1916908160001a9053508180600101925050808060010191505062000932565b506000828051906020012090508d6003600060015481526020019081526020016000206000019080519060200190620009e192919062002845565b508c600360006001548152602001908152602001600020600101908051906020019062000a1092919062002845565b508b600360006001548152602001908152602001600020600201908051906020019062000a3f92919062002845565b506001546003600060015481526020019081526020016000206003018190555080600360006001548152602001908152602001600020600401819055508a600360006001548152602001908152602001600020600501908051906020019062000aaa92919062002845565b5089600360006001548152602001908152602001600020600601908051906020019062000ad992919062002845565b506001549850505050505050505095945050505050565b600460008154809291906001019190505550606083905060608390506060839050606081518351855101016040519080825280601f01601f19166020018201604052801562000b4e5781602001600182028038833980820191505090505b5090506060819050600080905060008090505b865181101562000bd35786818151811062000b7857fe5b602001015160f81c60f81b83838060010194508151811062000b9657fe5b60200101907effffffffffffffffffffffffffffffffffffffffffffffffffffffffffffff1916908160001a905350808060010191505062000b61565b5060008090505b855181101562000c4c5785818151811062000bf157fe5b602001015160f81c60f81b83838060010194508151811062000c0f57fe5b60200101907effffffffffffffffffffffffffffffffffffffffffffffffffffffffffffff1916908160001a905350808060010191505062000bda565b5060008090505b845181101562000cc55784818151811062000c6a57fe5b602001015160f81c60f81b83838060010194508151811062000c8857fe5b60200101907effffffffffffffffffffffffffffffffffffffffffffffffffffffffffffff1916908160001a905350808060010191505062000c53565b5060008280519060200120905089600560006004548152602001908152602001600020600001908051906020019062000d0092919062002845565b5088600560006004548152602001908152602001600020600101908051906020019062000d2f92919062002845565b5087600560006004548152602001908152602001600020600201908051906020019062000d5e92919062002845565b5060045460056000600454815260200190815260200160002060030181905550806005600060045481526020019081526020016000206004018190555050505050505050505050565b60066000815480929190600101919050555060008090506000600190505b600054811162001242576060600260008381526020019081526020016000206000018054600181600116156101000203166002900480601f01602080910402602001604051908101604052809291908181526020018280546001816001161561010002031660029004801562000e7f5780601f1062000e535761010080835404028352916020019162000e7f565b820191906000526020600020905b81548152906001019060200180831162000e6157829003601f168201915b505050505090506060600260008481526020019081526020016000206001018054600181600116156101000203166002900480601f01602080910402602001604051908101604052809291908181526020018280546001816001161561010002031660029004801562000f365780601f1062000f0a5761010080835404028352916020019162000f36565b820191906000526020600020905b81548152906001019060200180831162000f1857829003601f168201915b505050505090506060600260008581526020019081526020016000206002018054600181600116156101000203166002900480601f01602080910402602001604051908101604052809291908181526020018280546001816001161561010002031660029004801562000fed5780601f1062000fc15761010080835404028352916020019162000fed565b820191906000526020600020905b81548152906001019060200180831162000fcf57829003601f168201915b505050505090506060600260008681526020019081526020016000206003018054600181600116156101000203166002900480601f016020809104026020016040519081016040528092919081815260200182805460018160011615610100020316600290048015620010a45780601f106200107857610100808354040283529160200191620010a4565b820191906000526020600020905b8154815290600101906020018083116200108657829003601f168201915b505050505090506060600260008781526020019081526020016000206006018054600181600116156101000203166002900480601f0160208091040260200160405190810160405280929190818152602001828054600181600116156101000203166002900480156200115b5780601f106200112f576101008083540402835291602001916200115b565b820191906000526020600020905b8154815290600101906020018083116200113d57829003601f168201915b505050505090506060600260008881526020019081526020016000206007018054600181600116156101000203166002900480601f016020809104026020016040519081016040528092919081815260200182805460018160011615610100020316600290048015620012125780601f10620011e65761010080835404028352916020019162001212565b820191906000526020600020905b815481529060010190602001808311620011f457829003601f168201915b50505050509050805182518451865188518a51010101010188019750505050505050808060010191505062000dc5565b506000600190505b60015481116200160c576060600360008381526020019081526020016000206000018054600181600116156101000203166002900480601f016020809104026020016040519081016040528092919081815260200182805460018160011615610100020316600290048015620013045780601f10620012d85761010080835404028352916020019162001304565b820191906000526020600020905b815481529060010190602001808311620012e657829003601f168201915b505050505090506060600360008481526020019081526020016000206001018054600181600116156101000203166002900480601f016020809104026020016040519081016040528092919081815260200182805460018160011615610100020316600290048015620013bb5780601f106200138f57610100808354040283529160200191620013bb565b820191906000526020600020905b8154815290600101906020018083116200139d57829003601f168201915b505050505090506060600360008581526020019081526020016000206002018054600181600116156101000203166002900480601f016020809104026020016040519081016040528092919081815260200182805460018160011615610100020316600290048015620014725780601f10620014465761010080835404028352916020019162001472565b820191906000526020600020905b8154815290600101906020018083116200145457829003601f168201915b505050505090506060600360008681526020019081526020016000206005018054600181600116156101000203166002900480601f016020809104026020016040519081016040528092919081815260200182805460018160011615610100020316600290048015620015295780601f10620014fd5761010080835404028352916020019162001529565b820191906000526020600020905b8154815290600101906020018083116200150b57829003601f168201915b505050505090506060600360008781526020019081526020016000206006018054600181600116156101000203166002900480601f016020809104026020016040519081016040528092919081815260200182805460018160011615610100020316600290048015620015e05780601f10620015b457610100808354040283529160200191620015e0565b820191906000526020600020905b815481529060010190602001808311620015c257829003601f168201915b50505050509050805182518451865188510101010187019650505050505080806001019150506200124a565b506060816040519080825280601f01601f191660200182016040528015620016435781602001600182028038833980820191505090505b50905060008090506060829050600080600090506000600190505b600054811162001d9c576060600260008381526020019081526020016000206000018054600181600116156101000203166002900480601f016020809104026020016040519081016040528092919081815260200182805460018160011615610100020316600290048015620017185780601f10620016ec5761010080835404028352916020019162001718565b820191906000526020600020905b815481529060010190602001808311620016fa57829003601f168201915b5050505050905060008090505b815181101562001797578181815181106200173c57fe5b602001015160f81c60f81b8685806001019650815181106200175a57fe5b60200101907effffffffffffffffffffffffffffffffffffffffffffffffffffffffffffff1916908160001a905350808060010191505062001725565b506060600260008481526020019081526020016000206001018054600181600116156101000203166002900480601f016020809104026020016040519081016040528092919081815260200182805460018160011615610100020316600290048015620018485780601f106200181c5761010080835404028352916020019162001848565b820191906000526020600020905b8154815290600101906020018083116200182a57829003601f168201915b5050505050905060008090505b8151811015620018c7578181815181106200186c57fe5b602001015160f81c60f81b8786806001019750815181106200188a57fe5b60200101907effffffffffffffffffffffffffffffffffffffffffffffffffffffffffffff1916908160001a905350808060010191505062001855565b506060600260008581526020019081526020016000206002018054600181600116156101000203166002900480601f016020809104026020016040519081016040528092919081815260200182805460018160011615610100020316600290048015620019785780601f106200194c5761010080835404028352916020019162001978565b820191906000526020600020905b8154815290600101906020018083116200195a57829003601f168201915b5050505050905060008090505b8151811015620019f7578181815181106200199c57fe5b602001015160f81c60f81b888780600101985081518110620019ba57fe5b60200101907effffffffffffffffffffffffffffffffffffffffffffffffffffffffffffff1916908160001a905350808060010191505062001985565b506060600260008681526020019081526020016000206003018054600181600116156101000203166002900480601f01602080910402602001604051908101604052809291908181526020018280546001816001161561010002031660029004801562001aa85780601f1062001a7c5761010080835404028352916020019162001aa8565b820191906000526020600020905b81548152906001019060200180831162001a8a57829003601f168201915b5050505050905060008090505b815181101562001b275781818151811062001acc57fe5b602001015160f81c60f81b89888060010199508151811062001aea57fe5b60200101907effffffffffffffffffffffffffffffffffffffffffffffffffffffffffffff1916908160001a905350808060010191505062001ab5565b506060600260008781526020019081526020016000206006018054600181600116156101000203166002900480601f01602080910402602001604051908101604052809291908181526020018280546001816001161561010002031660029004801562001bd85780601f1062001bac5761010080835404028352916020019162001bd8565b820191906000526020600020905b81548152906001019060200180831162001bba57829003601f168201915b5050505050905060008090505b815181101562001c575781818151811062001bfc57fe5b602001015160f81c60f81b8a89806001019a508151811062001c1a57fe5b60200101907effffffffffffffffffffffffffffffffffffffffffffffffffffffffffffff1916908160001a905350808060010191505062001be5565b506060600260008881526020019081526020016000206007018054600181600116156101000203166002900480601f01602080910402602001604051908101604052809291908181526020018280546001816001161561010002031660029004801562001d085780601f1062001cdc5761010080835404028352916020019162001d08565b820191906000526020600020905b81548152906001019060200180831162001cea57829003601f168201915b5050505050905060008090505b815181101562001d875781818151811062001d2c57fe5b602001015160f81c60f81b8b8a806001019b508151811062001d4a57fe5b60200101907effffffffffffffffffffffffffffffffffffffffffffffffffffffffffffff1916908160001a905350808060010191505062001d15565b5050505050505080806001019150506200165e565b506000600190505b6001548111620023b1576060600360008381526020019081526020016000206000018054600181600116156101000203166002900480601f01602080910402602001604051908101604052809291908181526020018280546001816001161561010002031660029004801562001e5e5780601f1062001e325761010080835404028352916020019162001e5e565b820191906000526020600020905b81548152906001019060200180831162001e4057829003601f168201915b5050505050905060008090505b815181101562001edd5781818151811062001e8257fe5b602001015160f81c60f81b86858060010196508151811062001ea057fe5b60200101907effffffffffffffffffffffffffffffffffffffffffffffffffffffffffffff1916908160001a905350808060010191505062001e6b565b506060600360008481526020019081526020016000206001018054600181600116156101000203166002900480601f01602080910402602001604051908101604052809291908181526020018280546001816001161561010002031660029004801562001f8e5780601f1062001f625761010080835404028352916020019162001f8e565b820191906000526020600020905b81548152906001019060200180831162001f7057829003601f168201915b5050505050905060008090505b81518110156200200d5781818151811062001fb257fe5b602001015160f81c60f81b87868060010197508151811062001fd057fe5b60200101907effffffffffffffffffffffffffffffffffffffffffffffffffffffffffffff1916908160001a905350808060010191505062001f9b565b506060600360008581526020019081526020016000206002018054600181600116156101000203166002900480601f016020809104026020016040519081016040528092919081815260200182805460018160011615610100020316600290048015620020be5780601f106200209257610100808354040283529160200191620020be565b820191906000526020600020905b815481529060010190602001808311620020a057829003601f168201915b5050505050905060008090505b81518110156200213d57818181518110620020e257fe5b602001015160f81c60f81b8887806001019850815181106200210057fe5b60200101907effffffffffffffffffffffffffffffffffffffffffffffffffffffffffffff1916908160001a9053508080600101915050620020cb565b506060600360008681526020019081526020016000206005018054600181600116156101000203166002900480601f016020809104026020016040519081016040528092919081815260200182805460018160011615610100020316600290048015620021ee5780601f10620021c257610100808354040283529160200191620021ee565b820191906000526020600020905b815481529060010190602001808311620021d057829003601f168201915b5050505050905060008090505b81518110156200226d578181815181106200221257fe5b602001015160f81c60f81b8988806001019950815181106200223057fe5b60200101907effffffffffffffffffffffffffffffffffffffffffffffffffffffffffffff1916908160001a9053508080600101915050620021fb565b506060600360008781526020019081526020016000206006018054600181600116156101000203166002900480601f0160208091040260200160405190810160405280929190818152602001828054600181600116156101000203166002900480156200231e5780601f10620022f2576101008083540402835291602001916200231e565b820191906000526020600020905b8154815290600101906020018083116200230057829003601f168201915b5050505050905060008090505b81518110156200239d578181815181106200234257fe5b602001015160f81c60f81b8a89806001019a50815181106200236057fe5b60200101907effffffffffffffffffffffffffffffffffffffffffffffffffffffffffffff1916908160001a90535080806001019150506200232b565b505050505050808060010191505062001da4565b5060008090506060806000600190505b60045481116200248e576004548114156200241a57600560008281526020019081526020016000206004015460405160200180828152602001915050604051602081830303815290604052925082518401935062002480565b60006001820190506005600083815260200190815260200160002060040154600560008381526020019081526020016000206004015460405160200180838152602001828152602001925050506040516020818303038152906040529250825185019450505b8080600101915050620023c1565b506060836040519080825280601f01601f191660200182016040528015620024c55781602001600182028038833980820191505090505b509050606081905060008090506000600190505b60045481116200269457600454811415620025a557600560008281526020019081526020016000206004015460405160200180828152602001915050604051602081830303815290604052955060008090505b86518110156200259e578681815181106200254357fe5b602001015160f81c60f81b8484806001019550815181106200256157fe5b60200101907effffffffffffffffffffffffffffffffffffffffffffffffffffffffffffff1916908160001a90535080806001019150506200252c565b5062002686565b6000600182019050600560008381526020019081526020016000206004015460056000838152602001908152602001600020600401546040516020018083815260200182815260200192505050604051602081830303815290604052955060008090505b86518110156200267b578681815181106200262057fe5b602001015160f81c60f81b8585806001019650815181106200263e57fe5b60200101907effffffffffffffffffffffffffffffffffffffffffffffffffffffffffffff1916908160001a905350808060010191505062002609565b508180600101925050505b8080600101915050620024d9565b5060008280519060200120905060608a516040519080825280601f01601f191660200182016040528015620026d85781602001600182028038833980820191505090505b5090506060819050600080905060008090505b8d518110156200275d578d81815181106200270257fe5b602001015160f81c60f81b8383806001019450815181106200272057fe5b60200101907effffffffffffffffffffffffffffffffffffffffffffffffffffffffffffff1916908160001a9053508080600101915050620026eb565b5081805190602001209b50600654600760006006548152602001908152602001600020600301819055508c6007600060065481526020019081526020016000206001019080519060200190620027b5929190620028cc565b508b60076000600654815260200190815260200160002060040181905550600854600760006006548152602001908152602001600020600501819055508d6007600060065481526020019081526020016000206000018190555083600760006006548152602001908152602001600020600201819055508b60088190555050505050505050505050505050505050565b828054600181600116156101000203166002900490600052602060002090601f016020900481019282601f106200288857805160ff1916838001178555620028b9565b82800160010185558215620028b9579182015b82811115620028b85782518255916020019190600101906200289b565b5b509050620028c8919062002953565b5090565b828054600181600116156101000203166002900490600052602060002090601f016020900481019282601f106200290f57805160ff191683800117855562002940565b8280016001018555821562002940579182015b828111156200293f57825182559160200191906001019062002922565b5b5090506200294f919062002953565b5090565b6200297891905b80821115620029745760008160009055506001016200295a565b5090565b90565b614154806200298b6000396000f3fe608060405234801561001057600080fd5b50600436106100b45760003560e01c8063acecc14911610071578063acecc149146108ca578063b7483a1b146108e8578063cc11e16914610caa578063d5e2c5e414610fd5578063f3e2236f14611162578063f7ff50e214611180576100b4565b80630ae9d38e146100b957806317db127a146100d75780631c74915a146102c05780636610f9cf146102ca57806369e6601c1461059b5780636f05bbf414610800575b600080fd5b6100c161119e565b6040518082815260200191505060405180910390f35b6102be600480360360608110156100ed57600080fd5b810190808035906020019064010000000081111561010a57600080fd5b82018360208201111561011c57600080fd5b8035906020019184600183028401116401000000008311171561013e57600080fd5b91908080601f016020809104026020016040519081016040528093929190818152602001838380828437600081840152601f19601f820116905080830192505050505050509192919290803590602001906401000000008111156101a157600080fd5b8201836020820111156101b357600080fd5b803590602001918460018302840111640100000000831117156101d557600080fd5b91908080601f016020809104026020016040519081016040528093929190818152602001838380828437600081840152601f19601f8201169050808301925050505050505091929192908035906020019064010000000081111561023857600080fd5b82018360208201111561024a57600080fd5b8035906020019184600183028401116401000000008311171561026c57600080fd5b91908080601f016020809104026020016040519081016040528093929190818152602001838380828437600081840152601f19601f8201169050808301925050505050505091929192905050506111a4565b005b6102c8611448565b005b6102f6600480360360208110156102e057600080fd5b8101908080359060200190929190505050612e41565b6040518080602001806020018060200180602001898152602001888152602001806020018060200187810387528f818151815260200191508051906020019080838360005b8381101561035657808201518184015260208101905061033b565b50505050905090810190601f1680156103835780820380516001836020036101000a031916815260200191505b5087810386528e818151815260200191508051906020019080838360005b838110156103bc5780820151818401526020810190506103a1565b50505050905090810190601f1680156103e95780820380516001836020036101000a031916815260200191505b5087810385528d818151815260200191508051906020019080838360005b83811015610422578082015181840152602081019050610407565b50505050905090810190601f16801561044f5780820380516001836020036101000a031916815260200191505b5087810384528c818151815260200191508051906020019080838360005b8381101561048857808201518184015260208101905061046d565b50505050905090810190601f1680156104b55780820380516001836020036101000a031916815260200191505b50878103835289818151815260200191508051906020019080838360005b838110156104ee5780820151818401526020810190506104d3565b50505050905090810190601f16801561051b5780820380516001836020036101000a031916815260200191505b50878103825288818151815260200191508051906020019080838360005b83811015610554578082015181840152602081019050610539565b50505050905090810190601f1680156105815780820380516001836020036101000a031916815260200191505b509e50505050505050505050505050505060405180910390f35b6105c7600480360360208110156105b157600080fd5b8101908080359060200190929190505050613219565b60405180806020018060200180602001888152602001878152602001806020018060200186810386528d818151815260200191508051906020019080838360005b83811015610623578082015181840152602081019050610608565b50505050905090810190601f1680156106505780820380516001836020036101000a031916815260200191505b5086810385528c818151815260200191508051906020019080838360005b8381101561068957808201518184015260208101905061066e565b50505050905090810190601f1680156106b65780820380516001836020036101000a031916815260200191505b5086810384528b818151815260200191508051906020019080838360005b838110156106ef5780820151818401526020810190506106d4565b50505050905090810190601f16801561071c5780820380516001836020036101000a031916815260200191505b50868103835288818151815260200191508051906020019080838360005b8381101561075557808201518184015260208101905061073a565b50505050905090810190601f1680156107825780820380516001836020036101000a031916815260200191505b50868103825287818151815260200191508051906020019080838360005b838110156107bb5780820151818401526020810190506107a0565b50505050905090810190601f1680156107e85780820380516001836020036101000a031916815260200191505b509c5050505050505050505050505060405180910390f35b61082c6004803603602081101561081657600080fd5b8101908080359060200190929190505050613553565b6040518087815260200180602001868152602001858152602001848152602001838152602001828103825287818151815260200191508051906020019080838360005b8381101561088a57808201518184015260208101905061086f565b50505050905090810190601f1680156108b75780820380516001836020036101000a031916815260200191505b5097505050505050505060405180910390f35b6108d2613627565b6040518082815260200191505060405180910390f35b610c94600480360360c08110156108fe57600080fd5b810190808035906020019064010000000081111561091b57600080fd5b82018360208201111561092d57600080fd5b8035906020019184600183028401116401000000008311171561094f57600080fd5b91908080601f016020809104026020016040519081016040528093929190818152602001838380828437600081840152601f19601f820116905080830192505050505050509192919290803590602001906401000000008111156109b257600080fd5b8201836020820111156109c457600080fd5b803590602001918460018302840111640100000000831117156109e657600080fd5b91908080601f016020809104026020016040519081016040528093929190818152602001838380828437600081840152601f19601f82011690508083019250505050505050919291929080359060200190640100000000811115610a4957600080fd5b820183602082011115610a5b57600080fd5b80359060200191846001830284011164010000000083111715610a7d57600080fd5b91908080601f016020809104026020016040519081016040528093929190818152602001838380828437600081840152601f19601f82011690508083019250505050505050919291929080359060200190640100000000811115610ae057600080fd5b820183602082011115610af257600080fd5b80359060200191846001830284011164010000000083111715610b1457600080fd5b91908080601f016020809104026020016040519081016040528093929190818152602001838380828437600081840152601f19601f82011690508083019250505050505050919291929080359060200190640100000000811115610b7757600080fd5b820183602082011115610b8957600080fd5b80359060200191846001830284011164010000000083111715610bab57600080fd5b91908080601f016020809104026020016040519081016040528093929190818152602001838380828437600081840152601f19601f82011690508083019250505050505050919291929080359060200190640100000000811115610c0e57600080fd5b820183602082011115610c2057600080fd5b80359060200191846001830284011164010000000083111715610c4257600080fd5b91908080601f016020809104026020016040519081016040528093929190818152602001838380828437600081840152601f19601f82011690508083019250505050505050919291929050505061362d565b6040518082815260200191505060405180910390f35b610fbf600480360360a0811015610cc057600080fd5b8101908080359060200190640100000000811115610cdd57600080fd5b820183602082011115610cef57600080fd5b80359060200191846001830284011164010000000083111715610d1157600080fd5b91908080601f016020809104026020016040519081016040528093929190818152602001838380828437600081840152601f19601f82011690508083019250505050505050919291929080359060200190640100000000811115610d7457600080fd5b820183602082011115610d8657600080fd5b80359060200191846001830284011164010000000083111715610da857600080fd5b91908080601f016020809104026020016040519081016040528093929190818152602001838380828437600081840152601f19601f82011690508083019250505050505050919291929080359060200190640100000000811115610e0b57600080fd5b820183602082011115610e1d57600080fd5b80359060200191846001830284011164010000000083111715610e3f57600080fd5b91908080601f016020809104026020016040519081016040528093929190818152602001838380828437600081840152601f19601f82011690508083019250505050505050919291929080359060200190640100000000811115610ea257600080fd5b820183602082011115610eb457600080fd5b80359060200191846001830284011164010000000083111715610ed657600080fd5b91908080601f016020809104026020016040519081016040528093929190818152602001838380828437600081840152601f19601f82011690508083019250505050505050919291929080359060200190640100000000811115610f3957600080fd5b820183602082011115610f4b57600080fd5b80359060200191846001830284011164010000000083111715610f6d57600080fd5b91908080601f016020809104026020016040519081016040528093929190818152602001838380828437600081840152601f19601f820116905080830192505050505050509192919290505050613a61565b6040518082815260200191505060405180910390f35b61100160048036036020811015610feb57600080fd5b8101908080359060200190929190505050613df0565b60405180806020018060200180602001868152602001858152602001848103845289818151815260200191508051906020019080838360005b8381101561105557808201518184015260208101905061103a565b50505050905090810190601f1680156110825780820380516001836020036101000a031916815260200191505b50848103835288818151815260200191508051906020019080838360005b838110156110bb5780820151818401526020810190506110a0565b50505050905090810190601f1680156110e85780820380516001836020036101000a031916815260200191505b50848103825287818151815260200191508051906020019080838360005b83811015611121578082015181840152602081019050611106565b50505050905090810190601f16801561114e5780820380516001836020036101000a031916815260200191505b509850505050505050505060405180910390f35b61116a613fee565b6040518082815260200191505060405180910390f35b611188613ff4565b6040518082815260200191505060405180910390f35b60065481565b600460008154809291906001019190505550606083905060608390506060839050606081518351855101016040519080825280601f01601f1916602001820160405280156112015781602001600182028038833980820191505090505b5090506060819050600080905060008090505b86518110156112825786818151811061122957fe5b602001015160f81c60f81b83838060010194508151811061124657fe5b60200101907effffffffffffffffffffffffffffffffffffffffffffffffffffffffffffff1916908160001a9053508080600101915050611214565b5060008090505b85518110156112f75785818151811061129e57fe5b602001015160f81c60f81b8383806001019450815181106112bb57fe5b60200101907effffffffffffffffffffffffffffffffffffffffffffffffffffffffffffff1916908160001a9053508080600101915050611289565b5060008090505b845181101561136c5784818151811061131357fe5b602001015160f81c60f81b83838060010194508151811061133057fe5b60200101907effffffffffffffffffffffffffffffffffffffffffffffffffffffffffffff1916908160001a90535080806001019150506112fe565b506000828051906020012090508960056000600454815260200190815260200160002060000190805190602001906113a5929190613ffa565b508860056000600454815260200190815260200160002060010190805190602001906113d2929190613ffa565b508760056000600454815260200190815260200160002060020190805190602001906113ff929190613ffa565b5060045460056000600454815260200190815260200160002060030181905550806005600060045481526020019081526020016000206004018190555050505050505050505050565b60066000815480929190600101919050555060008090506000600190505b60005481116118c9576060600260008381526020019081526020016000206000018054600181600116156101000203166002900480601f01602080910402602001604051908101604052809291908181526020018280546001816001161561010002031660029004801561151b5780601f106114f05761010080835404028352916020019161151b565b820191906000526020600020905b8154815290600101906020018083116114fe57829003601f168201915b505050505090506060600260008481526020019081526020016000206001018054600181600116156101000203166002900480601f0160208091040260200160405190810160405280929190818152602001828054600181600116156101000203166002900480156115ce5780601f106115a3576101008083540402835291602001916115ce565b820191906000526020600020905b8154815290600101906020018083116115b157829003601f168201915b505050505090506060600260008581526020019081526020016000206002018054600181600116156101000203166002900480601f0160208091040260200160405190810160405280929190818152602001828054600181600116156101000203166002900480156116815780601f1061165657610100808354040283529160200191611681565b820191906000526020600020905b81548152906001019060200180831161166457829003601f168201915b505050505090506060600260008681526020019081526020016000206003018054600181600116156101000203166002900480601f0160208091040260200160405190810160405280929190818152602001828054600181600116156101000203166002900480156117345780601f1061170957610100808354040283529160200191611734565b820191906000526020600020905b81548152906001019060200180831161171757829003601f168201915b505050505090506060600260008781526020019081526020016000206006018054600181600116156101000203166002900480601f0160208091040260200160405190810160405280929190818152602001828054600181600116156101000203166002900480156117e75780601f106117bc576101008083540402835291602001916117e7565b820191906000526020600020905b8154815290600101906020018083116117ca57829003601f168201915b505050505090506060600260008881526020019081526020016000206007018054600181600116156101000203166002900480601f01602080910402602001604051908101604052809291908181526020018280546001816001161561010002031660029004801561189a5780601f1061186f5761010080835404028352916020019161189a565b820191906000526020600020905b81548152906001019060200180831161187d57829003601f168201915b50505050509050805182518451865188518a510101010101880197505050505050508080600101915050611466565b506000600190505b6001548111611c7d576060600360008381526020019081526020016000206000018054600181600116156101000203166002900480601f0160208091040260200160405190810160405280929190818152602001828054600181600116156101000203166002900480156119865780601f1061195b57610100808354040283529160200191611986565b820191906000526020600020905b81548152906001019060200180831161196957829003601f168201915b505050505090506060600360008481526020019081526020016000206001018054600181600116156101000203166002900480601f016020809104026020016040519081016040528092919081815260200182805460018160011615610100020316600290048015611a395780601f10611a0e57610100808354040283529160200191611a39565b820191906000526020600020905b815481529060010190602001808311611a1c57829003601f168201915b505050505090506060600360008581526020019081526020016000206002018054600181600116156101000203166002900480601f016020809104026020016040519081016040528092919081815260200182805460018160011615610100020316600290048015611aec5780601f10611ac157610100808354040283529160200191611aec565b820191906000526020600020905b815481529060010190602001808311611acf57829003601f168201915b505050505090506060600360008681526020019081526020016000206005018054600181600116156101000203166002900480601f016020809104026020016040519081016040528092919081815260200182805460018160011615610100020316600290048015611b9f5780601f10611b7457610100808354040283529160200191611b9f565b820191906000526020600020905b815481529060010190602001808311611b8257829003601f168201915b505050505090506060600360008781526020019081526020016000206006018054600181600116156101000203166002900480601f016020809104026020016040519081016040528092919081815260200182805460018160011615610100020316600290048015611c525780601f10611c2757610100808354040283529160200191611c52565b820191906000526020600020905b815481529060010190602001808311611c3557829003601f168201915b50505050509050805182518451865188510101010187019650505050505080806001019150506118d1565b506060816040519080825280601f01601f191660200182016040528015611cb35781602001600182028038833980820191505090505b50905060008090506060829050600080600090506000600190505b60005481116123da576060600260008381526020019081526020016000206000018054600181600116156101000203166002900480601f016020809104026020016040519081016040528092919081815260200182805460018160011615610100020316600290048015611d835780601f10611d5857610100808354040283529160200191611d83565b820191906000526020600020905b815481529060010190602001808311611d6657829003601f168201915b5050505050905060008090505b8151811015611dfe57818181518110611da557fe5b602001015160f81c60f81b868580600101965081518110611dc257fe5b60200101907effffffffffffffffffffffffffffffffffffffffffffffffffffffffffffff1916908160001a9053508080600101915050611d90565b506060600260008481526020019081526020016000206001018054600181600116156101000203166002900480601f016020809104026020016040519081016040528092919081815260200182805460018160011615610100020316600290048015611eab5780601f10611e8057610100808354040283529160200191611eab565b820191906000526020600020905b815481529060010190602001808311611e8e57829003601f168201915b5050505050905060008090505b8151811015611f2657818181518110611ecd57fe5b602001015160f81c60f81b878680600101975081518110611eea57fe5b60200101907effffffffffffffffffffffffffffffffffffffffffffffffffffffffffffff1916908160001a9053508080600101915050611eb8565b506060600260008581526020019081526020016000206002018054600181600116156101000203166002900480601f016020809104026020016040519081016040528092919081815260200182805460018160011615610100020316600290048015611fd35780601f10611fa857610100808354040283529160200191611fd3565b820191906000526020600020905b815481529060010190602001808311611fb657829003601f168201915b5050505050905060008090505b815181101561204e57818181518110611ff557fe5b602001015160f81c60f81b88878060010198508151811061201257fe5b60200101907effffffffffffffffffffffffffffffffffffffffffffffffffffffffffffff1916908160001a9053508080600101915050611fe0565b506060600260008681526020019081526020016000206003018054600181600116156101000203166002900480601f0160208091040260200160405190810160405280929190818152602001828054600181600116156101000203166002900480156120fb5780601f106120d0576101008083540402835291602001916120fb565b820191906000526020600020905b8154815290600101906020018083116120de57829003601f168201915b5050505050905060008090505b81518110156121765781818151811061211d57fe5b602001015160f81c60f81b89888060010199508151811061213a57fe5b60200101907effffffffffffffffffffffffffffffffffffffffffffffffffffffffffffff1916908160001a9053508080600101915050612108565b506060600260008781526020019081526020016000206006018054600181600116156101000203166002900480601f0160208091040260200160405190810160405280929190818152602001828054600181600116156101000203166002900480156122235780601f106121f857610100808354040283529160200191612223565b820191906000526020600020905b81548152906001019060200180831161220657829003601f168201915b5050505050905060008090505b815181101561229e5781818151811061224557fe5b602001015160f81c60f81b8a89806001019a508151811061226257fe5b60200101907effffffffffffffffffffffffffffffffffffffffffffffffffffffffffffff1916908160001a9053508080600101915050612230565b506060600260008881526020019081526020016000206007018054600181600116156101000203166002900480601f01602080910402602001604051908101604052809291908181526020018280546001816001161561010002031660029004801561234b5780601f106123205761010080835404028352916020019161234b565b820191906000526020600020905b81548152906001019060200180831161232e57829003601f168201915b5050505050905060008090505b81518110156123c65781818151811061236d57fe5b602001015160f81c60f81b8b8a806001019b508151811061238a57fe5b60200101907effffffffffffffffffffffffffffffffffffffffffffffffffffffffffffff1916908160001a9053508080600101915050612358565b505050505050508080600101915050611cce565b506000600190505b60015481116129c5576060600360008381526020019081526020016000206000018054600181600116156101000203166002900480601f0160208091040260200160405190810160405280929190818152602001828054600181600116156101000203166002900480156124975780601f1061246c57610100808354040283529160200191612497565b820191906000526020600020905b81548152906001019060200180831161247a57829003601f168201915b5050505050905060008090505b8151811015612512578181815181106124b957fe5b602001015160f81c60f81b8685806001019650815181106124d657fe5b60200101907effffffffffffffffffffffffffffffffffffffffffffffffffffffffffffff1916908160001a90535080806001019150506124a4565b506060600360008481526020019081526020016000206001018054600181600116156101000203166002900480601f0160208091040260200160405190810160405280929190818152602001828054600181600116156101000203166002900480156125bf5780601f10612594576101008083540402835291602001916125bf565b820191906000526020600020905b8154815290600101906020018083116125a257829003601f168201915b5050505050905060008090505b815181101561263a578181815181106125e157fe5b602001015160f81c60f81b8786806001019750815181106125fe57fe5b60200101907effffffffffffffffffffffffffffffffffffffffffffffffffffffffffffff1916908160001a90535080806001019150506125cc565b506060600360008581526020019081526020016000206002018054600181600116156101000203166002900480601f0160208091040260200160405190810160405280929190818152602001828054600181600116156101000203166002900480156126e75780601f106126bc576101008083540402835291602001916126e7565b820191906000526020600020905b8154815290600101906020018083116126ca57829003601f168201915b5050505050905060008090505b81518110156127625781818151811061270957fe5b602001015160f81c60f81b88878060010198508151811061272657fe5b60200101907effffffffffffffffffffffffffffffffffffffffffffffffffffffffffffff1916908160001a90535080806001019150506126f4565b506060600360008681526020019081526020016000206005018054600181600116156101000203166002900480601f01602080910402602001604051908101604052809291908181526020018280546001816001161561010002031660029004801561280f5780601f106127e45761010080835404028352916020019161280f565b820191906000526020600020905b8154815290600101906020018083116127f257829003601f168201915b5050505050905060008090505b815181101561288a5781818151811061283157fe5b602001015160f81c60f81b89888060010199508151811061284e57fe5b60200101907effffffffffffffffffffffffffffffffffffffffffffffffffffffffffffff1916908160001a905350808060010191505061281c565b506060600360008781526020019081526020016000206006018054600181600116156101000203166002900480601f0160208091040260200160405190810160405280929190818152602001828054600181600116156101000203166002900480156129375780601f1061290c57610100808354040283529160200191612937565b820191906000526020600020905b81548152906001019060200180831161291a57829003601f168201915b5050505050905060008090505b81518110156129b25781818151811061295957fe5b602001015160f81c60f81b8a89806001019a508151811061297657fe5b60200101907effffffffffffffffffffffffffffffffffffffffffffffffffffffffffffff1916908160001a9053508080600101915050612944565b50505050505080806001019150506123e2565b5060008090506060806000600190505b6004548111612a9e57600454811415612a2b576005600082815260200190815260200160002060040154604051602001808281526020019150506040516020818303038152906040529250825184019350612a91565b60006001820190506005600083815260200190815260200160002060040154600560008381526020019081526020016000206004015460405160200180838152602001828152602001925050506040516020818303038152906040529250825185019450505b80806001019150506129d5565b506060836040519080825280601f01601f191660200182016040528015612ad45781602001600182028038833980820191505090505b509050606081905060008090506000600190505b6004548111612c9757600454811415612bad57600560008281526020019081526020016000206004015460405160200180828152602001915050604051602081830303815290604052955060008090505b8651811015612ba757868181518110612b4e57fe5b602001015160f81c60f81b848480600101955081518110612b6b57fe5b60200101907effffffffffffffffffffffffffffffffffffffffffffffffffffffffffffff1916908160001a9053508080600101915050612b39565b50612c8a565b6000600182019050600560008381526020019081526020016000206004015460056000838152602001908152602001600020600401546040516020018083815260200182815260200192505050604051602081830303815290604052955060008090505b8651811015612c7f57868181518110612c2657fe5b602001015160f81c60f81b858580600101965081518110612c4357fe5b60200101907effffffffffffffffffffffffffffffffffffffffffffffffffffffffffffff1916908160001a9053508080600101915050612c11565b508180600101925050505b8080600101915050612ae8565b5060008280519060200120905060608a516040519080825280601f01601f191660200182016040528015612cda5781602001600182028038833980820191505090505b5090506060819050600080905060008090505b8d51811015612d5b578d8181518110612d0257fe5b602001015160f81c60f81b838380600101945081518110612d1f57fe5b60200101907effffffffffffffffffffffffffffffffffffffffffffffffffffffffffffff1916908160001a9053508080600101915050612ced565b5081805190602001209b50600654600760006006548152602001908152602001600020600301819055508c6007600060065481526020019081526020016000206001019080519060200190612db192919061407a565b508b60076000600654815260200190815260200160002060040181905550600854600760006006548152602001908152602001600020600501819055508d6007600060065481526020019081526020016000206000018190555083600760006006548152602001908152602001600020600201819055508b60088190555050505050505050505050505050505050565b6002602052806000526040600020600091509050806000018054600181600116156101000203166002900480601f016020809104026020016040519081016040528092919081815260200182805460018160011615610100020316600290048015612eed5780601f10612ec257610100808354040283529160200191612eed565b820191906000526020600020905b815481529060010190602001808311612ed057829003601f168201915b505050505090806001018054600181600116156101000203166002900480601f016020809104026020016040519081016040528092919081815260200182805460018160011615610100020316600290048015612f8b5780601f10612f6057610100808354040283529160200191612f8b565b820191906000526020600020905b815481529060010190602001808311612f6e57829003601f168201915b505050505090806002018054600181600116156101000203166002900480601f0160208091040260200160405190810160405280929190818152602001828054600181600116156101000203166002900480156130295780601f10612ffe57610100808354040283529160200191613029565b820191906000526020600020905b81548152906001019060200180831161300c57829003601f168201915b505050505090806003018054600181600116156101000203166002900480601f0160208091040260200160405190810160405280929190818152602001828054600181600116156101000203166002900480156130c75780601f1061309c576101008083540402835291602001916130c7565b820191906000526020600020905b8154815290600101906020018083116130aa57829003601f168201915b505050505090806004015490806005015490806006018054600181600116156101000203166002900480601f0160208091040260200160405190810160405280929190818152602001828054600181600116156101000203166002900480156131715780601f1061314657610100808354040283529160200191613171565b820191906000526020600020905b81548152906001019060200180831161315457829003601f168201915b505050505090806007018054600181600116156101000203166002900480601f01602080910402602001604051908101604052809291908181526020018280546001816001161561010002031660029004801561320f5780601f106131e45761010080835404028352916020019161320f565b820191906000526020600020905b8154815290600101906020018083116131f257829003601f168201915b5050505050905088565b6003602052806000526040600020600091509050806000018054600181600116156101000203166002900480601f0160208091040260200160405190810160405280929190818152602001828054600181600116156101000203166002900480156132c55780601f1061329a576101008083540402835291602001916132c5565b820191906000526020600020905b8154815290600101906020018083116132a857829003601f168201915b505050505090806001018054600181600116156101000203166002900480601f0160208091040260200160405190810160405280929190818152602001828054600181600116156101000203166002900480156133635780601f1061333857610100808354040283529160200191613363565b820191906000526020600020905b81548152906001019060200180831161334657829003601f168201915b505050505090806002018054600181600116156101000203166002900480601f0160208091040260200160405190810160405280929190818152602001828054600181600116156101000203166002900480156134015780601f106133d657610100808354040283529160200191613401565b820191906000526020600020905b8154815290600101906020018083116133e457829003601f168201915b505050505090806003015490806004015490806005018054600181600116156101000203166002900480601f0160208091040260200160405190810160405280929190818152602001828054600181600116156101000203166002900480156134ab5780601f10613480576101008083540402835291602001916134ab565b820191906000526020600020905b81548152906001019060200180831161348e57829003601f168201915b505050505090806006018054600181600116156101000203166002900480601f0160208091040260200160405190810160405280929190818152602001828054600181600116156101000203166002900480156135495780601f1061351e57610100808354040283529160200191613549565b820191906000526020600020905b81548152906001019060200180831161352c57829003601f168201915b5050505050905087565b6007602052806000526040600020600091509050806000015490806001018054600181600116156101000203166002900480601f0160208091040260200160405190810160405280929190818152602001828054600181600116156101000203166002900480156136055780601f106135da57610100808354040283529160200191613605565b820191906000526020600020905b8154815290600101906020018083116135e857829003601f168201915b5050505050908060020154908060030154908060040154908060050154905086565b60005481565b6000806000815480929190600101919050555060608790506060879050606087905060608790506060879050606081518351855187518951010101016040519080825280601f01601f19166020018201604052801561369b5781602001600182028038833980820191505090505b5090506060819050600080905060008090505b885181101561371e578881815181106136c357fe5b602001015160f81c60f81b8383815181106136da57fe5b60200101907effffffffffffffffffffffffffffffffffffffffffffffffffffffffffffff1916908160001a905350818060010192505080806001019150506136ae565b5060008090505b87518110156137955787818151811061373a57fe5b602001015160f81c60f81b83838151811061375157fe5b60200101907effffffffffffffffffffffffffffffffffffffffffffffffffffffffffffff1916908160001a90535081806001019250508080600101915050613725565b5060008090505b865181101561380c578681815181106137b157fe5b602001015160f81c60f81b8383815181106137c857fe5b60200101907effffffffffffffffffffffffffffffffffffffffffffffffffffffffffffff1916908160001a9053508180600101925050808060010191505061379c565b5060008090505b85518110156138835785818151811061382857fe5b602001015160f81c60f81b83838151811061383f57fe5b60200101907effffffffffffffffffffffffffffffffffffffffffffffffffffffffffffff1916908160001a90535081806001019250508080600101915050613813565b5060008090505b84518110156138fa5784818151811061389f57fe5b602001015160f81c60f81b8383815181106138b657fe5b60200101907effffffffffffffffffffffffffffffffffffffffffffffffffffffffffffff1916908160001a9053508180600101925050808060010191505061388a565b506000828051906020012090508f60026000805481526020019081526020016000206000019080519060200190613932929190613ffa565b508e6002600080548152602001908152602001600020600101908051906020019061395e929190613ffa565b508d6002600080548152602001908152602001600020600201908051906020019061398a929190613ffa565b508c600260008054815260200190815260200160002060030190805190602001906139b6929190613ffa565b50600054600260008054815260200190815260200160002060040181905550806002600080548152602001908152602001600020600501819055508b60026000805481526020019081526020016000206006019080519060200190613a1c929190613ffa565b508a60026000805481526020019081526020016000206007019080519060200190613a48929190613ffa565b5060005499505050505050505050509695505050505050565b60006001600081548092919060010191905055506060869050606086905060608690506060869050606081518351855187510101016040519080825280601f01601f191660200182016040528015613ac85781602001600182028038833980820191505090505b5090506060819050600080905060008090505b8751811015613b4b57878181518110613af057fe5b602001015160f81c60f81b838381518110613b0757fe5b60200101907effffffffffffffffffffffffffffffffffffffffffffffffffffffffffffff1916908160001a90535081806001019250508080600101915050613adb565b5060008090505b8651811015613bc257868181518110613b6757fe5b602001015160f81c60f81b838381518110613b7e57fe5b60200101907effffffffffffffffffffffffffffffffffffffffffffffffffffffffffffff1916908160001a90535081806001019250508080600101915050613b52565b5060008090505b8551811015613c3957858181518110613bde57fe5b602001015160f81c60f81b838381518110613bf557fe5b60200101907effffffffffffffffffffffffffffffffffffffffffffffffffffffffffffff1916908160001a90535081806001019250508080600101915050613bc9565b5060008090505b8451811015613cb057848181518110613c5557fe5b602001015160f81c60f81b838381518110613c6c57fe5b60200101907effffffffffffffffffffffffffffffffffffffffffffffffffffffffffffff1916908160001a90535081806001019250508080600101915050613c40565b506000828051906020012090508d6003600060015481526020019081526020016000206000019080519060200190613ce9929190613ffa565b508c6003600060015481526020019081526020016000206001019080519060200190613d16929190613ffa565b508b6003600060015481526020019081526020016000206002019080519060200190613d43929190613ffa565b506001546003600060015481526020019081526020016000206003018190555080600360006001548152602001908152602001600020600401819055508a6003600060015481526020019081526020016000206005019080519060200190613dac929190613ffa565b50896003600060015481526020019081526020016000206006019080519060200190613dd9929190613ffa565b506001549850505050505050505095945050505050565b6005602052806000526040600020600091509050806000018054600181600116156101000203166002900480601f016020809104026020016040519081016040528092919081815260200182805460018160011615610100020316600290048015613e9c5780601f10613e7157610100808354040283529160200191613e9c565b820191906000526020600020905b815481529060010190602001808311613e7f57829003601f168201915b505050505090806001018054600181600116156101000203166002900480601f016020809104026020016040519081016040528092919081815260200182805460018160011615610100020316600290048015613f3a5780601f10613f0f57610100808354040283529160200191613f3a565b820191906000526020600020905b815481529060010190602001808311613f1d57829003601f168201915b505050505090806002018054600181600116156101000203166002900480601f016020809104026020016040519081016040528092919081815260200182805460018160011615610100020316600290048015613fd85780601f10613fad57610100808354040283529160200191613fd8565b820191906000526020600020905b815481529060010190602001808311613fbb57829003601f168201915b5050505050908060030154908060040154905085565b60015481565b60045481565b828054600181600116156101000203166002900490600052602060002090601f016020900481019282601f1061403b57805160ff1916838001178555614069565b82800160010185558215614069579182015b8281111561406857825182559160200191906001019061404d565b5b50905061407691906140fa565b5090565b828054600181600116156101000203166002900490600052602060002090601f016020900481019282601f106140bb57805160ff19168380011785556140e9565b828001600101855582156140e9579182015b828111156140e85782518255916020019190600101906140cd565b5b5090506140f691906140fa565b5090565b61411c91905b80821115614118576000816000905550600101614100565b5090565b9056fea265627a7a7231582044f1c7e657ce58003a6b37cdceba0d9150fb4a1913889713cad860fd13d194ec64736f6c63430005100032307839453446653737626241333362396138353937653635463838414334304438356234354432443545307830383633623436653531623935384539654666333636436344633145386631653530393135633835307843413335623764393135343538454635343061446536303638644665324634344538666137333363",
  "source": "//SPDX-License-Identifier:Unlicensed\r\npragma solidity ^ 0.5.16;\r\ncontract charity {\r\n\r\n  uint public charity_count = 0;\r\n\r\n\r\n  uint public org_count = 0;\r\n\r\n  struct charity_structre {\r\n    string name;\r\n    string description;\r\n    string bankAccount;\r\n    string bankName;\r\n    uint id;\r\n    bytes32 hash;\r\n    string address_of_charity;\r\n    string  ether_coins;\r\n\r\n\r\n  }\r\n\r\n  struct personOrOrganisation_structure {\r\n\r\n    string name;\r\n    string bankAccount;\r\n    string bankName;\r\n    uint id;\r\n    bytes32 hash;\r\n    string address_of_organisation;\r\n    string ether_coins;\r\n\r\n\r\n\r\n  }\r\n\r\n  constructor() public {\r\n\r\n      createCharity(\"anand_charity\", \"welcome to anand's charity\",\"bankacc\",\"bankname\",\"0xCA35b7d915458EF540aDe6068dFe2F44E8fa733c\",\"0000\");\r\n\r\n      createOrganisation(\"anand_organisation\",\"bank account\",\"bank name\",\"0xCA35b7d915458EF540aDe6068dFe2F44E8fa733c\",\"0000\");\r\n\r\n      createTransaction(\"0x9E4Fe77bbA33b9a8597e65F88AC40D85b45D2D5E\",\"0x0863b46e51b958E9eFf366CcDc1E8f1e50915c85\",\"1\");\r\n\r\n      blockchain_function();\r\n  }\r\n\r\n  mapping(uint => charity_structre) public charitys;\r\n\r\n\r\n  mapping(uint => personOrOrganisation_structure) public org;\r\n\r\n  struct transactions {\r\n\r\n    string address_of_charity;\r\n    string address_of_organisation;\r\n    string amount_sent;\r\n    uint id;\r\n    bytes32 transaction_hash;\r\n\r\n  }\r\n\r\n  uint public transaction_count = 0;\r\n\r\n  mapping(uint => transactions) public transaction_dict;\r\n\r\n\r\n  uint public blockchain_count = 0;\r\n\r\n  struct blockchain_structure {\r\n\r\n      uint nonce;\r\n      bytes data;\r\n      bytes32 transaction_hash_add;\r\n      uint blockNumber;\r\n      bytes32 hash;\r\n      bytes32 previous_hash;\r\n  }\r\n\r\n  mapping(uint => blockchain_structure) public Blockchain;\r\n\r\n  bytes32 previousHash;\r\n\r\n  function createCharity(string memory _name, string memory _description, string memory _bankacc, string memory _bankname, string memory _address, string memory _ether_coins) public returns(uint){\r\n\r\n      charity_count++;\r\n      bytes memory name_byte = bytes(_name);\r\n      bytes memory description_byte = bytes(_description);\r\n      bytes memory bankacc_byte = bytes(_bankacc);\r\n      bytes memory bankname_byte = bytes(_bankname);\r\n      bytes memory address_byte = bytes(_address);\r\n      string memory lengthabc = new string(name_byte.length + description_byte.length + bankacc_byte.length + bankname_byte.length + address_byte.length);\r\n      bytes memory hash = bytes(lengthabc);\r\n      uint k = 0;\r\n      for(uint i =0;i < name_byte.length; i++){\r\n          hash[k] = name_byte[i];\r\n          k++;\r\n      }\r\n      for(uint i = 0;i < description_byte.length;i++){\r\n          hash[k] = description_byte[i];\r\n          k++;\r\n      }\r\n      for(uint i = 0;i < bankacc_byte.length;i++){\r\n          hash[k] = bankacc_byte[i];\r\n          k++;\r\n      }\r\n      for(uint i = 0;i < bankname_byte.length;i++){\r\n          hash[k] = bankname_byte[i];\r\n          k++;\r\n      }\r\n\r\n      for(uint i = 0;i < address_byte.length; i++ ){\r\n\r\n          hash[k] = address_byte[i];\r\n          k++;\r\n      }\r\n\r\n\r\n      bytes32 hash_address = keccak256(hash);\r\n      charitys[charity_count].name = _name;\r\n      charitys[charity_count].description = _description;\r\n      charitys[charity_count].bankAccount = _bankacc;\r\n      charitys[charity_count].bankName = _bankname;\r\n      charitys[charity_count].id = charity_count;\r\n      charitys[charity_count].hash = hash_address;\r\n      charitys[charity_count].address_of_charity = _address;\r\n      charitys[charity_count].ether_coins = _ether_coins;\r\n      //emit charityCreated(_name,_description,_bankacc,_bankname,charity_count,hash_address,_address);\r\n\r\n      return(charity_count);\r\n\r\n\r\n  }\r\n\r\n\r\n  function createOrganisation(string memory _name, string memory _bankacc, string memory _bankname, string memory _address, string memory _ether_coins) public returns(uint){\r\n\r\n    org_count ++;\r\n\r\n    bytes memory name_byte = bytes(_name);\r\n    bytes memory acc_byte = bytes(_bankacc);\r\n    bytes memory bankname_byte = bytes(_bankname);\r\n    bytes memory address_byte = bytes(_address);\r\n    string memory lengthabc = new string(name_byte.length + acc_byte.length + bankname_byte.length + address_byte.length );\r\n    bytes memory hash = bytes(lengthabc);\r\n\r\n    uint k = 0;\r\n\r\n    for(uint i = 0; i < name_byte.length;i++) {\r\n\r\n      hash[k] = name_byte[i];\r\n      k++;\r\n    }\r\n\r\n    for(uint i = 0; i < acc_byte.length; i++){\r\n\r\n      hash[k] = acc_byte[i];\r\n      k++;\r\n\r\n    }\r\n\r\n\r\n    for(uint i = 0; i < bankname_byte.length; i++) {\r\n\r\n      hash[k] = bankname_byte[i];\r\n      k++;\r\n    }\r\n\r\n\r\n    for(uint i = 0;i < address_byte.length; i++) {\r\n\r\n      hash[k] = address_byte[i];\r\n      k++;\r\n\r\n    }\r\n    bytes32 hash_address = keccak256(hash);\r\n\r\n    org[org_count].name = _name;\r\n    org[org_count].bankAccount = _bankacc;\r\n    org[org_count].bankName = _bankname;\r\n    org[org_count].id = org_count;\r\n    org[org_count].hash = hash_address;\r\n    org[org_count].address_of_organisation = _address;\r\n    org[org_count].ether_coins = _ether_coins;\r\n    return org_count;\r\n\r\n\r\n  }\r\n\r\nfunction createTransaction(string memory add_of_charity,string memory add_of_org,string memory amount) public {\r\n\r\n    transaction_count++;\r\n\r\n\r\n\r\n    bytes memory _address_of_charity = bytes(add_of_charity);\r\n    bytes memory _address_of_organisation = bytes(add_of_org);\r\n    bytes memory _amount = bytes(amount);\r\n\r\n    string memory length_abc = new string(_address_of_charity.length + _address_of_organisation.length + _amount.length);\r\n    bytes memory hash = bytes(length_abc);\r\n\r\n    uint k = 0;\r\n    for(uint i = 0; i < _address_of_charity.length; i++) {\r\n\r\n      hash[k++] = _address_of_charity[i];\r\n\r\n    }\r\n\r\n    for(uint i = 0; i < _address_of_organisation.length; i++) {\r\n\r\n      hash[k++] = _address_of_organisation[i];\r\n\r\n    }\r\n\r\n    for(uint i = 0; i < _amount.length; i++) {\r\n\r\n      hash[k++] = _amount[i];\r\n\r\n    }\r\n\r\n    bytes32 hash_address = keccak256(hash);\r\n    transaction_dict[transaction_count].address_of_charity = add_of_charity;\r\n    transaction_dict[transaction_count].address_of_organisation = add_of_org;\r\n    transaction_dict[transaction_count].amount_sent = amount;\r\n    transaction_dict[transaction_count].id = transaction_count;\r\n    transaction_dict[transaction_count].transaction_hash = hash_address;\r\n\r\n\r\n\r\n}\r\n/*\r\nfunction substring(string str, uint startIndex, uint endIndex) public returns (string) {\r\n    bytes memory strBytes = bytes(str);\r\n    bytes memory result = new bytes(endIndex-startIndex);\r\n    for(uint i = startIndex; i < endIndex; i++) {\r\n        result[i-startIndex] = strBytes[i];\r\n    }\r\n    return string(result);\r\n}\r\n*/\r\nfunction blockchain_function() public {\r\n\r\n\r\n\r\n    blockchain_count++;\r\n    uint len = 0;\r\n    for(uint i = 1;i<=charity_count;i++){\r\n        bytes memory name_charity = bytes(charitys[i].name);\r\n        bytes memory description = bytes(charitys[i].description);\r\n        bytes memory bankacc = bytes(charitys[i].bankAccount);\r\n        bytes memory bankname = bytes(charitys[i].bankName);\r\n        bytes memory add_of_charity_byte = bytes(charitys[i].address_of_charity);\r\n        bytes memory amount_byte = bytes(charitys[i].ether_coins);\r\n        len += name_charity.length + description.length + bankacc.length + bankname.length + add_of_charity_byte.length + amount_byte.length;\r\n    }\r\n    for(uint i =1;i<=org_count;i++){\r\n        bytes memory name_org = bytes(org[i].name);\r\n        bytes memory bankacc_org = bytes(org[i].bankAccount);\r\n        bytes memory bankname_org = bytes(org[i].bankName);\r\n        bytes memory address_of_organisation_byte = bytes(org[i].address_of_organisation);\r\n        bytes memory ether_coins_byte = bytes(org[i].ether_coins);\r\n        len += name_org.length + bankacc_org.length + bankname_org.length + address_of_organisation_byte.length + ether_coins_byte.length;\r\n    }\r\n    string memory lengthabcd = new string(len);\r\n\r\n    uint nonceValue = 0;\r\n    bytes memory dataString = bytes(lengthabcd) ;\r\n    bytes32 hash_addressNew;\r\n\r\n    uint j = 0;\r\n\r\n    for(uint i = 1;i <= charity_count; i++){\r\n      bytes memory name_charity = bytes(charitys[i].name);\r\n      for(uint m=0;m<name_charity.length;m++){\r\n        dataString[j++] = name_charity[m];\r\n      }\r\n\r\n      bytes memory description = bytes(charitys[i].description);\r\n      for(uint m=0;m<description.length;m++){\r\n        dataString[j++] = description[m];\r\n      }\r\n\r\n      bytes memory bankacc = bytes(charitys[i].bankAccount);\r\n      for(uint m=0;m<bankacc.length;m++){\r\n        dataString[j++] = bankacc[m];\r\n      }\r\n\r\n      bytes memory bankname = bytes(charitys[i].bankName);\r\n      for(uint m=0;m<bankname.length;m++){\r\n        dataString[j++] = bankname[m];\r\n      }\r\n\r\n      bytes memory add_of_charity_byte = bytes(charitys[i].address_of_charity);\r\n      for(uint m=0;m<add_of_charity_byte.length;m++){\r\n        dataString[j++] = add_of_charity_byte[m];\r\n      }\r\n\r\n\r\n      bytes memory amount_byte = bytes(charitys[i].ether_coins);\r\n      for(uint m=0;m<amount_byte.length;m++){\r\n        dataString[j++] = amount_byte[m];\r\n      }\r\n      }\r\n\r\n    for(uint i = 1;i <= org_count; i++){\r\n\r\n\r\n      bytes memory name_org = bytes(org[i].name);\r\n      for(uint m=0;m<name_org.length;m++){\r\n        dataString[j++] = name_org[m];\r\n      }\r\n\r\n      bytes memory bankacc_org = bytes(org[i].bankAccount);\r\n      for(uint m=0;m<bankacc_org.length;m++){\r\n        dataString[j++] = bankacc_org[m];\r\n      }\r\n\r\n      bytes memory bankname_org = bytes(org[i].bankName);\r\n      for(uint m=0;m<bankname_org.length;m++){\r\n        dataString[j++] = bankname_org[m];\r\n      }\r\n\r\n      bytes memory address_of_organisation_byte = bytes(org[i].address_of_organisation);\r\n      for(uint m=0;m<address_of_organisation_byte.length;m++){\r\n        dataString[j++] = address_of_organisation_byte[m];\r\n      }\r\n\r\n      bytes memory ether_coins_byte = bytes(org[i].ether_coins);\r\n      for(uint m=0;m<ether_coins_byte.length;m++){\r\n        dataString[j++] = ether_coins_byte[m];\r\n      }\r\n\r\n    }\r\nuint another_len = 0;\r\nbytes memory temp;\r\nbytes memory temp2;\r\n    for(uint i = 1;i<=transaction_count;i++){\r\n      if(i==transaction_count){\r\n          temp = abi.encode(transaction_dict[i].transaction_hash);\r\n          another_len += temp.length;\r\n      }\r\n      else {\r\n          uint z = i+1;\r\n          temp2 = abi.encode(transaction_dict[i].transaction_hash,transaction_dict[z].transaction_hash);\r\n          another_len += temp2.length;\r\n      }\r\n    }\r\n\r\n    string memory something = new string(another_len);\r\n\r\n    bytes memory hash_total = bytes(something);\r\n    uint l = 0;\r\n    for(uint i = 1; i<=transaction_count;i++) {\r\n\r\n       if(i==transaction_count){\r\n          temp = abi.encode(transaction_dict[i].transaction_hash);\r\n          for(uint m=0;m<temp.length;m++){\r\n            hash_total[l++] = temp[m];\r\n          }\r\n       }\r\n       else {\r\n       uint g = i+1;\r\n        temp2 = abi.encode(transaction_dict[i].transaction_hash,transaction_dict[g].transaction_hash);\r\n        for(uint m=0;m<temp2.length;m++){\r\n          hash_total[l++] = temp2[m];\r\n        }\r\n        i++;\r\n       }\r\n\r\n    }\r\n\r\n\r\n    bytes32 transaction_hash_address = keccak256(hash_total);\r\n\r\n//for hash calculation....\r\n\r\n  string memory lengthabc = new string(dataString.length);\r\n  bytes memory hashNew = bytes(lengthabc);\r\n  uint k =0;\r\n  for(uint i = 0;i<dataString.length;i++){\r\n    hashNew[k++] = dataString[i];\r\n  }\r\n  hash_addressNew = keccak256(hashNew);\r\n\r\n\r\n    Blockchain[blockchain_count].blockNumber = blockchain_count;\r\n    Blockchain[blockchain_count].data = dataString;\r\n    Blockchain[blockchain_count].hash = hash_addressNew;\r\n    Blockchain[blockchain_count].previous_hash = previousHash;\r\n    Blockchain[blockchain_count].nonce = nonceValue;\r\n    Blockchain[blockchain_count].transaction_hash_add = transaction_hash_address;\r\n    previousHash = hash_addressNew;\r\n    }\r\n\r\n}\r\n",
  "sourcePath": "C:\\Users\\Lenovo\\Documents\\GitHub\\CharityBlockchain\\contracts\\charity.sol",
  "compiler": {
    "name": "solc",
    "version": "0.5.16+commit.9c3226ce.Emscripten.clang"
  },
  "schemaVersion": "3.4.16",
  "updatedAt": "2024-10-03T11:33:23.834Z",
  "networkType": "ethereum",
  "devdoc": {
    "methods": {}
  },
  "userdoc": {
    "methods": {}
  }
}